{
  "_format": "hh-sol-artifact-1",
  "contractName": "Hero",
  "sourceName": "contracts/Hero.sol",
  "abi": [
    {
      "inputs": [
        {
          "internalType": "enum Hero.Class",
          "name": "cl",
          "type": "uint8"
        }
      ],
      "name": "cH",
      "outputs": [],
      "stateMutability": "payable",
      "type": "function"
    },
    {
      "inputs": [],
      "name": "generateRandom",
      "outputs": [
        {
          "internalType": "uint256",
          "name": "",
          "type": "uint256"
        }
      ],
      "stateMutability": "view",
      "type": "function"
    },
    {
      "inputs": [
        {
          "internalType": "uint256",
          "name": "hero",
          "type": "uint256"
        }
      ],
      "name": "getD",
      "outputs": [
        {
          "internalType": "uint256",
          "name": "",
          "type": "uint256"
        }
      ],
      "stateMutability": "pure",
      "type": "function"
    },
    {
      "inputs": [
        {
          "internalType": "uint256",
          "name": "hero",
          "type": "uint256"
        }
      ],
      "name": "getH",
      "outputs": [
        {
          "internalType": "uint256",
          "name": "",
          "type": "uint256"
        }
      ],
      "stateMutability": "pure",
      "type": "function"
    },
    {
      "inputs": [
        {
          "internalType": "uint256",
          "name": "hero",
          "type": "uint256"
        }
      ],
      "name": "getI",
      "outputs": [
        {
          "internalType": "uint256",
          "name": "",
          "type": "uint256"
        }
      ],
      "stateMutability": "pure",
      "type": "function"
    },
    {
      "inputs": [
        {
          "internalType": "uint256",
          "name": "hero",
          "type": "uint256"
        }
      ],
      "name": "getM",
      "outputs": [
        {
          "internalType": "uint256",
          "name": "",
          "type": "uint256"
        }
      ],
      "stateMutability": "pure",
      "type": "function"
    },
    {
      "inputs": [
        {
          "internalType": "uint256",
          "name": "hero",
          "type": "uint256"
        }
      ],
      "name": "getS",
      "outputs": [
        {
          "internalType": "uint256",
          "name": "",
          "type": "uint256"
        }
      ],
      "stateMutability": "pure",
      "type": "function"
    },
    {
      "inputs": [],
      "name": "geth",
      "outputs": [
        {
          "internalType": "uint256[]",
          "name": "",
          "type": "uint256[]"
        }
      ],
      "stateMutability": "view",
      "type": "function"
    }
  ],
  "bytecode": "0x608060405234801561001057600080fd5b50610a24806100206000396000f3fe60806040526004361061007b5760003560e01c8063d40d7b601161004e578063d40d7b6014610162578063e024bfe71461019f578063fe724906146101bb578063ff66e6e8146101e65761007b565b806302e4af011461008057806345b55648146100ab5780638ec1cd2f146100e8578063b3a84c9214610125575b600080fd5b34801561008c57600080fd5b50610095610223565b6040516100a291906105dd565b60405180910390f35b3480156100b757600080fd5b506100d260048036038101906100cd9190610629565b610256565b6040516100df91906105dd565b60405180910390f35b3480156100f457600080fd5b5061010f600480360381019061010a9190610629565b610267565b60405161011c91906105dd565b60405180910390f35b34801561013157600080fd5b5061014c60048036038101906101479190610629565b610278565b60405161015991906105dd565b60405180910390f35b34801561016e57600080fd5b5061018960048036038101906101849190610629565b610289565b60405161019691906105dd565b60405180910390f35b6101b960048036038101906101b4919061067b565b61029a565b005b3480156101c757600080fd5b506101d061051f565b6040516101dd9190610766565b60405180910390f35b3480156101f257600080fd5b5061020d60048036038101906102089190610629565b6105b3565b60405161021a91906105dd565b60405180910390f35b600044426040516020016102389291906107a9565b6040516020818303038152906040528051906020012060001c905090565b6000601f600c83901b169050919050565b6000601f601683901b169050919050565b6000601f600783901b169050919050565b6000601f600283901b169050919050565b66b1a2bc2ec500003410156102e4576040517f08c379a00000000000000000000000000000000000000000000000000000000081526004016102db90610832565b60405180910390fd5b6000600567ffffffffffffffff81111561030157610300610852565b5b60405190808252806020026020018201604052801561032f5781602001602082028036833780820191505090505b50905060028160008151811061034857610347610881565b5b60200260200101818152505060078160018151811061036a57610369610881565b5b602002602001018181525050600c8160028151811061038c5761038b610881565b5b6020026020010181815250506011816003815181106103ae576103ad610881565b5b6020026020010181815250506016816004815181106103d0576103cf610881565b5b60200260200101818152505060006005905060008360028111156103f7576103f66108b0565b5b90505b600082610405610223565b61040f919061090e565b90506000600184600d610422919061096e565b61042a610223565b610434919061090e565b61043e919061096e565b905084828151811061045357610452610881565b5b602002602001015181901b83179250838061046d906109c4565b94505084848151811061048357610482610881565b5b602002602001015185838151811061049e5761049d610881565b5b6020026020010181815250505050600082116103fa576000803373ffffffffffffffffffffffffffffffffffffffff1673ffffffffffffffffffffffffffffffffffffffff16815260200190815260200160002081908060018154018082558091505060019003906000526020600020016000909190919091505550505050565b60606000803373ffffffffffffffffffffffffffffffffffffffff1673ffffffffffffffffffffffffffffffffffffffff1681526020019081526020016000208054806020026020016040519081016040528092919081815260200182805480156105a957602002820191906000526020600020905b815481526020019060010190808311610595575b5050505050905090565b6000601f601183901b169050919050565b6000819050919050565b6105d7816105c4565b82525050565b60006020820190506105f260008301846105ce565b92915050565b600080fd5b610606816105c4565b811461061157600080fd5b50565b600081359050610623816105fd565b92915050565b60006020828403121561063f5761063e6105f8565b5b600061064d84828501610614565b91505092915050565b6003811061066357600080fd5b50565b60008135905061067581610656565b92915050565b600060208284031215610691576106906105f8565b5b600061069f84828501610666565b91505092915050565b600081519050919050565b600082825260208201905092915050565b6000819050602082019050919050565b6106dd816105c4565b82525050565b60006106ef83836106d4565b60208301905092915050565b6000602082019050919050565b6000610713826106a8565b61071d81856106b3565b9350610728836106c4565b8060005b8381101561075957815161074088826106e3565b975061074b836106fb565b92505060018101905061072c565b5085935050505092915050565b600060208201905081810360008301526107808184610708565b905092915050565b6000819050919050565b6107a361079e826105c4565b610788565b82525050565b60006107b58285610792565b6020820191506107c58284610792565b6020820191508190509392505050565b600082825260208201905092915050565b7f496e73756666696369656e742066756e64730000000000000000000000000000600082015250565b600061081c6012836107d5565b9150610827826107e6565b602082019050919050565b6000602082019050818103600083015261084b8161080f565b9050919050565b7f4e487b7100000000000000000000000000000000000000000000000000000000600052604160045260246000fd5b7f4e487b7100000000000000000000000000000000000000000000000000000000600052603260045260246000fd5b7f4e487b7100000000000000000000000000000000000000000000000000000000600052602160045260246000fd5b7f4e487b7100000000000000000000000000000000000000000000000000000000600052601260045260246000fd5b6000610919826105c4565b9150610924836105c4565b925082610934576109336108df565b5b828206905092915050565b7f4e487b7100000000000000000000000000000000000000000000000000000000600052601160045260246000fd5b6000610979826105c4565b9150610984836105c4565b9250827fffffffffffffffffffffffffffffffffffffffffffffffffffffffffffffffff038211156109b9576109b861093f565b5b828201905092915050565b60006109cf826105c4565b915060008214156109e3576109e261093f565b5b60018203905091905056fea264697066735822122015288d9b9161fed3bda398fb0b918a4314ad9a9e7b49bdc342dd2f585df09cd064736f6c634300080a0033",
  "linkReferences": {},
  "deployedLinkReferences": {}
}