{
  "_format": "hh-sol-artifact-1",
  "contractName": "testhero",
  "sourceName": "contracts/testhero.sol",
  "abi": [
    {
      "inputs": [
        {
          "internalType": "enum Hero.Class",
          "name": "cl",
          "type": "uint8"
        }
      ],
      "name": "cH",
      "outputs": [],
      "stateMutability": "payable",
      "type": "function"
    },
    {
      "inputs": [],
      "name": "generateRandom",
      "outputs": [
        {
          "internalType": "uint256",
          "name": "",
          "type": "uint256"
        }
      ],
      "stateMutability": "view",
      "type": "function"
    },
    {
      "inputs": [
        {
          "internalType": "uint256",
          "name": "hero",
          "type": "uint256"
        }
      ],
      "name": "getD",
      "outputs": [
        {
          "internalType": "uint256",
          "name": "",
          "type": "uint256"
        }
      ],
      "stateMutability": "pure",
      "type": "function"
    },
    {
      "inputs": [
        {
          "internalType": "uint256",
          "name": "hero",
          "type": "uint256"
        }
      ],
      "name": "getH",
      "outputs": [
        {
          "internalType": "uint256",
          "name": "",
          "type": "uint256"
        }
      ],
      "stateMutability": "pure",
      "type": "function"
    },
    {
      "inputs": [
        {
          "internalType": "uint256",
          "name": "hero",
          "type": "uint256"
        }
      ],
      "name": "getI",
      "outputs": [
        {
          "internalType": "uint256",
          "name": "",
          "type": "uint256"
        }
      ],
      "stateMutability": "pure",
      "type": "function"
    },
    {
      "inputs": [
        {
          "internalType": "uint256",
          "name": "hero",
          "type": "uint256"
        }
      ],
      "name": "getM",
      "outputs": [
        {
          "internalType": "uint256",
          "name": "",
          "type": "uint256"
        }
      ],
      "stateMutability": "pure",
      "type": "function"
    },
    {
      "inputs": [
        {
          "internalType": "uint256",
          "name": "hero",
          "type": "uint256"
        }
      ],
      "name": "getS",
      "outputs": [
        {
          "internalType": "uint256",
          "name": "",
          "type": "uint256"
        }
      ],
      "stateMutability": "pure",
      "type": "function"
    },
    {
      "inputs": [],
      "name": "geth",
      "outputs": [
        {
          "internalType": "uint256[]",
          "name": "",
          "type": "uint256[]"
        }
      ],
      "stateMutability": "view",
      "type": "function"
    },
    {
      "inputs": [
        {
          "internalType": "uint256",
          "name": "r",
          "type": "uint256"
        }
      ],
      "name": "setRan",
      "outputs": [],
      "stateMutability": "nonpayable",
      "type": "function"
    }
  ],
  "bytecode": "0x608060405234801561001057600080fd5b506109ec806100206000396000f3fe6080604052600436106100865760003560e01c8063d40d7b6011610059578063d40d7b601461016d578063e024bfe7146101aa578063ef196b0e146101c6578063fe724906146101ef578063ff66e6e81461021a57610086565b806302e4af011461008b57806345b55648146100b65780638ec1cd2f146100f3578063b3a84c9214610130575b600080fd5b34801561009757600080fd5b506100a0610257565b6040516100ad91906105f2565b60405180910390f35b3480156100c257600080fd5b506100dd60048036038101906100d8919061063e565b610261565b6040516100ea91906105f2565b60405180910390f35b3480156100ff57600080fd5b5061011a6004803603810190610115919061063e565b610272565b60405161012791906105f2565b60405180910390f35b34801561013c57600080fd5b506101576004803603810190610152919061063e565b610283565b60405161016491906105f2565b60405180910390f35b34801561017957600080fd5b50610194600480360381019061018f919061063e565b610294565b6040516101a191906105f2565b60405180910390f35b6101c460048036038101906101bf9190610690565b6102a5565b005b3480156101d257600080fd5b506101ed60048036038101906101e8919061063e565b61052a565b005b3480156101fb57600080fd5b50610204610534565b604051610211919061077b565b60405180910390f35b34801561022657600080fd5b50610241600480360381019061023c919061063e565b6105c8565b60405161024e91906105f2565b60405180910390f35b6000600154905090565b6000601f600c83901b169050919050565b6000601f601683901b169050919050565b6000601f600783901b169050919050565b6000601f600283901b169050919050565b66b1a2bc2ec500003410156102ef576040517f08c379a00000000000000000000000000000000000000000000000000000000081526004016102e6906107fa565b60405180910390fd5b6000600567ffffffffffffffff81111561030c5761030b61081a565b5b60405190808252806020026020018201604052801561033a5781602001602082028036833780820191505090505b50905060028160008151811061035357610352610849565b5b60200260200101818152505060078160018151811061037557610374610849565b5b602002602001018181525050600c8160028151811061039757610396610849565b5b6020026020010181815250506011816003815181106103b9576103b8610849565b5b6020026020010181815250506016816004815181106103db576103da610849565b5b602002602001018181525050600060059050600083600281111561040257610401610878565b5b90505b600082610410610257565b61041a91906108d6565b90506000600184600d61042d9190610936565b610435610257565b61043f91906108d6565b6104499190610936565b905084828151811061045e5761045d610849565b5b602002602001015181901b8317925083806104789061098c565b94505084848151811061048e5761048d610849565b5b60200260200101518583815181106104a9576104a8610849565b5b602002602001018181525050505060008211610405576000803373ffffffffffffffffffffffffffffffffffffffff1673ffffffffffffffffffffffffffffffffffffffff16815260200190815260200160002081908060018154018082558091505060019003906000526020600020016000909190919091505550505050565b8060018190555050565b60606000803373ffffffffffffffffffffffffffffffffffffffff1673ffffffffffffffffffffffffffffffffffffffff1681526020019081526020016000208054806020026020016040519081016040528092919081815260200182805480156105be57602002820191906000526020600020905b8154815260200190600101908083116105aa575b5050505050905090565b6000601f601183901b169050919050565b6000819050919050565b6105ec816105d9565b82525050565b600060208201905061060760008301846105e3565b92915050565b600080fd5b61061b816105d9565b811461062657600080fd5b50565b60008135905061063881610612565b92915050565b6000602082840312156106545761065361060d565b5b600061066284828501610629565b91505092915050565b6003811061067857600080fd5b50565b60008135905061068a8161066b565b92915050565b6000602082840312156106a6576106a561060d565b5b60006106b48482850161067b565b91505092915050565b600081519050919050565b600082825260208201905092915050565b6000819050602082019050919050565b6106f2816105d9565b82525050565b600061070483836106e9565b60208301905092915050565b6000602082019050919050565b6000610728826106bd565b61073281856106c8565b935061073d836106d9565b8060005b8381101561076e57815161075588826106f8565b975061076083610710565b925050600181019050610741565b5085935050505092915050565b60006020820190508181036000830152610795818461071d565b905092915050565b600082825260208201905092915050565b7f496e73756666696369656e742066756e64730000000000000000000000000000600082015250565b60006107e460128361079d565b91506107ef826107ae565b602082019050919050565b60006020820190508181036000830152610813816107d7565b9050919050565b7f4e487b7100000000000000000000000000000000000000000000000000000000600052604160045260246000fd5b7f4e487b7100000000000000000000000000000000000000000000000000000000600052603260045260246000fd5b7f4e487b7100000000000000000000000000000000000000000000000000000000600052602160045260246000fd5b7f4e487b7100000000000000000000000000000000000000000000000000000000600052601260045260246000fd5b60006108e1826105d9565b91506108ec836105d9565b9250826108fc576108fb6108a7565b5b828206905092915050565b7f4e487b7100000000000000000000000000000000000000000000000000000000600052601160045260246000fd5b6000610941826105d9565b915061094c836105d9565b9250827fffffffffffffffffffffffffffffffffffffffffffffffffffffffffffffffff0382111561098157610980610907565b5b828201905092915050565b6000610997826105d9565b915060008214156109ab576109aa610907565b5b60018203905091905056fea2646970667358221220d91e3b50614b964bcd40851d83dbd6f8ad1ecc18fadfd1b9df04df496475736664736f6c634300080a0033",
  "linkReferences": {},
  "deployedLinkReferences": {}
}